{
  "_format": "hh-sol-artifact-1",
  "contractName": "GovernorContract",
  "sourceName": "contracts/Governance/GovernanceContract.sol",
  "abi": [
    {
      "inputs": [
        {
          "internalType": "contract GovernanceToken",
          "name": "_token",
          "type": "address"
        },
        {
          "internalType": "contract TimelockController",
          "name": "_timelock",
          "type": "address"
        },
        {
          "internalType": "uint256",
          "name": "_quorumPercentage",
          "type": "uint256"
        },
        {
          "internalType": "uint256",
          "name": "_votingPeriod",
          "type": "uint256"
        },
        {
          "internalType": "uint256",
          "name": "_votingDelay",
          "type": "uint256"
        }
      ],
      "stateMutability": "nonpayable",
      "type": "constructor"
    },
    {
      "anonymous": false,
      "inputs": [
        {
          "indexed": false,
          "internalType": "uint256",
          "name": "proposalId",
          "type": "uint256"
        }
      ],
      "name": "ProposalCanceled",
      "type": "event"
    },
    {
      "anonymous": false,
      "inputs": [
        {
          "indexed": false,
          "internalType": "uint256",
          "name": "proposalId",
          "type": "uint256"
        },
        {
          "indexed": false,
          "internalType": "address",
          "name": "proposer",
          "type": "address"
        },
        {
          "indexed": false,
          "internalType": "address[]",
          "name": "targets",
          "type": "address[]"
        },
        {
          "indexed": false,
          "internalType": "uint256[]",
          "name": "values",
          "type": "uint256[]"
        },
        {
          "indexed": false,
          "internalType": "string[]",
          "name": "signatures",
          "type": "string[]"
        },
        {
          "indexed": false,
          "internalType": "bytes[]",
          "name": "calldatas",
          "type": "bytes[]"
        },
        {
          "indexed": false,
          "internalType": "uint256",
          "name": "startBlock",
          "type": "uint256"
        },
        {
          "indexed": false,
          "internalType": "uint256",
          "name": "endBlock",
          "type": "uint256"
        },
        {
          "indexed": false,
          "internalType": "string",
          "name": "description",
          "type": "string"
        }
      ],
      "name": "ProposalCreated",
      "type": "event"
    },
    {
      "anonymous": false,
      "inputs": [
        {
          "indexed": false,
          "internalType": "uint256",
          "name": "proposalId",
          "type": "uint256"
        }
      ],
      "name": "ProposalExecuted",
      "type": "event"
    },
    {
      "anonymous": false,
      "inputs": [
        {
          "indexed": false,
          "internalType": "uint256",
          "name": "proposalId",
          "type": "uint256"
        },
        {
          "indexed": false,
          "internalType": "uint256",
          "name": "eta",
          "type": "uint256"
        }
      ],
      "name": "ProposalQueued",
      "type": "event"
    },
    {
      "anonymous": false,
      "inputs": [
        {
          "indexed": false,
          "internalType": "uint256",
          "name": "oldQuorumNumerator",
          "type": "uint256"
        },
        {
          "indexed": false,
          "internalType": "uint256",
          "name": "newQuorumNumerator",
          "type": "uint256"
        }
      ],
      "name": "QuorumNumeratorUpdated",
      "type": "event"
    },
    {
      "anonymous": false,
      "inputs": [
        {
          "indexed": false,
          "internalType": "address",
          "name": "oldTimelock",
          "type": "address"
        },
        {
          "indexed": false,
          "internalType": "address",
          "name": "newTimelock",
          "type": "address"
        }
      ],
      "name": "TimelockChange",
      "type": "event"
    },
    {
      "anonymous": false,
      "inputs": [
        {
          "indexed": true,
          "internalType": "address",
          "name": "voter",
          "type": "address"
        },
        {
          "indexed": false,
          "internalType": "uint256",
          "name": "proposalId",
          "type": "uint256"
        },
        {
          "indexed": false,
          "internalType": "uint8",
          "name": "support",
          "type": "uint8"
        },
        {
          "indexed": false,
          "internalType": "uint256",
          "name": "weight",
          "type": "uint256"
        },
        {
          "indexed": false,
          "internalType": "string",
          "name": "reason",
          "type": "string"
        }
      ],
      "name": "VoteCast",
      "type": "event"
    },
    {
      "inputs": [],
      "name": "BALLOT_TYPEHASH",
      "outputs": [
        {
          "internalType": "bytes32",
          "name": "",
          "type": "bytes32"
        }
      ],
      "stateMutability": "view",
      "type": "function"
    },
    {
      "inputs": [],
      "name": "COUNTING_MODE",
      "outputs": [
        {
          "internalType": "string",
          "name": "",
          "type": "string"
        }
      ],
      "stateMutability": "pure",
      "type": "function"
    },
    {
      "inputs": [
        {
          "internalType": "uint256",
          "name": "proposalId",
          "type": "uint256"
        },
        {
          "internalType": "uint8",
          "name": "support",
          "type": "uint8"
        }
      ],
      "name": "castVote",
      "outputs": [
        {
          "internalType": "uint256",
          "name": "",
          "type": "uint256"
        }
      ],
      "stateMutability": "nonpayable",
      "type": "function"
    },
    {
      "inputs": [
        {
          "internalType": "uint256",
          "name": "proposalId",
          "type": "uint256"
        },
        {
          "internalType": "uint8",
          "name": "support",
          "type": "uint8"
        },
        {
          "internalType": "uint8",
          "name": "v",
          "type": "uint8"
        },
        {
          "internalType": "bytes32",
          "name": "r",
          "type": "bytes32"
        },
        {
          "internalType": "bytes32",
          "name": "s",
          "type": "bytes32"
        }
      ],
      "name": "castVoteBySig",
      "outputs": [
        {
          "internalType": "uint256",
          "name": "",
          "type": "uint256"
        }
      ],
      "stateMutability": "nonpayable",
      "type": "function"
    },
    {
      "inputs": [
        {
          "internalType": "uint256",
          "name": "proposalId",
          "type": "uint256"
        },
        {
          "internalType": "uint8",
          "name": "support",
          "type": "uint8"
        },
        {
          "internalType": "string",
          "name": "reason",
          "type": "string"
        }
      ],
      "name": "castVoteWithReason",
      "outputs": [
        {
          "internalType": "uint256",
          "name": "",
          "type": "uint256"
        }
      ],
      "stateMutability": "nonpayable",
      "type": "function"
    },
    {
      "inputs": [
        {
          "internalType": "address[]",
          "name": "targets",
          "type": "address[]"
        },
        {
          "internalType": "uint256[]",
          "name": "values",
          "type": "uint256[]"
        },
        {
          "internalType": "bytes[]",
          "name": "calldatas",
          "type": "bytes[]"
        },
        {
          "internalType": "bytes32",
          "name": "descriptionHash",
          "type": "bytes32"
        }
      ],
      "name": "execute",
      "outputs": [
        {
          "internalType": "uint256",
          "name": "",
          "type": "uint256"
        }
      ],
      "stateMutability": "payable",
      "type": "function"
    },
    {
      "inputs": [
        {
          "internalType": "address",
          "name": "account",
          "type": "address"
        },
        {
          "internalType": "uint256",
          "name": "blockNumber",
          "type": "uint256"
        }
      ],
      "name": "getVotes",
      "outputs": [
        {
          "internalType": "uint256",
          "name": "",
          "type": "uint256"
        }
      ],
      "stateMutability": "view",
      "type": "function"
    },
    {
      "inputs": [
        {
          "internalType": "uint256",
          "name": "proposalId",
          "type": "uint256"
        },
        {
          "internalType": "address",
          "name": "account",
          "type": "address"
        }
      ],
      "name": "hasVoted",
      "outputs": [
        {
          "internalType": "bool",
          "name": "",
          "type": "bool"
        }
      ],
      "stateMutability": "view",
      "type": "function"
    },
    {
      "inputs": [
        {
          "internalType": "address[]",
          "name": "targets",
          "type": "address[]"
        },
        {
          "internalType": "uint256[]",
          "name": "values",
          "type": "uint256[]"
        },
        {
          "internalType": "bytes[]",
          "name": "calldatas",
          "type": "bytes[]"
        },
        {
          "internalType": "bytes32",
          "name": "descriptionHash",
          "type": "bytes32"
        }
      ],
      "name": "hashProposal",
      "outputs": [
        {
          "internalType": "uint256",
          "name": "",
          "type": "uint256"
        }
      ],
      "stateMutability": "pure",
      "type": "function"
    },
    {
      "inputs": [],
      "name": "name",
      "outputs": [
        {
          "internalType": "string",
          "name": "",
          "type": "string"
        }
      ],
      "stateMutability": "view",
      "type": "function"
    },
    {
      "inputs": [
        {
          "internalType": "uint256",
          "name": "proposalId",
          "type": "uint256"
        }
      ],
      "name": "proposalDeadline",
      "outputs": [
        {
          "internalType": "uint256",
          "name": "",
          "type": "uint256"
        }
      ],
      "stateMutability": "view",
      "type": "function"
    },
    {
      "inputs": [
        {
          "internalType": "uint256",
          "name": "proposalId",
          "type": "uint256"
        }
      ],
      "name": "proposalEta",
      "outputs": [
        {
          "internalType": "uint256",
          "name": "",
          "type": "uint256"
        }
      ],
      "stateMutability": "view",
      "type": "function"
    },
    {
      "inputs": [
        {
          "internalType": "uint256",
          "name": "proposalId",
          "type": "uint256"
        }
      ],
      "name": "proposalSnapshot",
      "outputs": [
        {
          "internalType": "uint256",
          "name": "",
          "type": "uint256"
        }
      ],
      "stateMutability": "view",
      "type": "function"
    },
    {
      "inputs": [],
      "name": "proposalThreshold",
      "outputs": [
        {
          "internalType": "uint256",
          "name": "",
          "type": "uint256"
        }
      ],
      "stateMutability": "view",
      "type": "function"
    },
    {
      "inputs": [
        {
          "internalType": "uint256",
          "name": "proposalId",
          "type": "uint256"
        }
      ],
      "name": "proposalVotes",
      "outputs": [
        {
          "internalType": "uint256",
          "name": "againstVotes",
          "type": "uint256"
        },
        {
          "internalType": "uint256",
          "name": "forVotes",
          "type": "uint256"
        },
        {
          "internalType": "uint256",
          "name": "abstainVotes",
          "type": "uint256"
        }
      ],
      "stateMutability": "view",
      "type": "function"
    },
    {
      "inputs": [
        {
          "internalType": "address[]",
          "name": "targets",
          "type": "address[]"
        },
        {
          "internalType": "uint256[]",
          "name": "values",
          "type": "uint256[]"
        },
        {
          "internalType": "bytes[]",
          "name": "calldatas",
          "type": "bytes[]"
        },
        {
          "internalType": "string",
          "name": "description",
          "type": "string"
        }
      ],
      "name": "propose",
      "outputs": [
        {
          "internalType": "uint256",
          "name": "",
          "type": "uint256"
        }
      ],
      "stateMutability": "nonpayable",
      "type": "function"
    },
    {
      "inputs": [
        {
          "internalType": "address[]",
          "name": "targets",
          "type": "address[]"
        },
        {
          "internalType": "uint256[]",
          "name": "values",
          "type": "uint256[]"
        },
        {
          "internalType": "bytes[]",
          "name": "calldatas",
          "type": "bytes[]"
        },
        {
          "internalType": "bytes32",
          "name": "descriptionHash",
          "type": "bytes32"
        }
      ],
      "name": "queue",
      "outputs": [
        {
          "internalType": "uint256",
          "name": "",
          "type": "uint256"
        }
      ],
      "stateMutability": "nonpayable",
      "type": "function"
    },
    {
      "inputs": [
        {
          "internalType": "uint256",
          "name": "blockNumber",
          "type": "uint256"
        }
      ],
      "name": "quorum",
      "outputs": [
        {
          "internalType": "uint256",
          "name": "",
          "type": "uint256"
        }
      ],
      "stateMutability": "view",
      "type": "function"
    },
    {
      "inputs": [],
      "name": "quorumDenominator",
      "outputs": [
        {
          "internalType": "uint256",
          "name": "",
          "type": "uint256"
        }
      ],
      "stateMutability": "view",
      "type": "function"
    },
    {
      "inputs": [],
      "name": "quorumNumerator",
      "outputs": [
        {
          "internalType": "uint256",
          "name": "",
          "type": "uint256"
        }
      ],
      "stateMutability": "view",
      "type": "function"
    },
    {
      "inputs": [
        {
          "internalType": "address",
          "name": "target",
          "type": "address"
        },
        {
          "internalType": "uint256",
          "name": "value",
          "type": "uint256"
        },
        {
          "internalType": "bytes",
          "name": "data",
          "type": "bytes"
        }
      ],
      "name": "relay",
      "outputs": [],
      "stateMutability": "nonpayable",
      "type": "function"
    },
    {
      "inputs": [],
      "name": "s_votingDelay",
      "outputs": [
        {
          "internalType": "uint256",
          "name": "",
          "type": "uint256"
        }
      ],
      "stateMutability": "view",
      "type": "function"
    },
    {
      "inputs": [],
      "name": "s_votingPeriod",
      "outputs": [
        {
          "internalType": "uint256",
          "name": "",
          "type": "uint256"
        }
      ],
      "stateMutability": "view",
      "type": "function"
    },
    {
      "inputs": [
        {
          "internalType": "uint256",
          "name": "proposalId",
          "type": "uint256"
        }
      ],
      "name": "state",
      "outputs": [
        {
          "internalType": "enum IGovernor.ProposalState",
          "name": "",
          "type": "uint8"
        }
      ],
      "stateMutability": "view",
      "type": "function"
    },
    {
      "inputs": [
        {
          "internalType": "bytes4",
          "name": "interfaceId",
          "type": "bytes4"
        }
      ],
      "name": "supportsInterface",
      "outputs": [
        {
          "internalType": "bool",
          "name": "",
          "type": "bool"
        }
      ],
      "stateMutability": "view",
      "type": "function"
    },
    {
      "inputs": [],
      "name": "timelock",
      "outputs": [
        {
          "internalType": "address",
          "name": "",
          "type": "address"
        }
      ],
      "stateMutability": "view",
      "type": "function"
    },
    {
      "inputs": [],
      "name": "token",
      "outputs": [
        {
          "internalType": "contract IVotes",
          "name": "",
          "type": "address"
        }
      ],
      "stateMutability": "view",
      "type": "function"
    },
    {
      "inputs": [
        {
          "internalType": "uint256",
          "name": "newQuorumNumerator",
          "type": "uint256"
        }
      ],
      "name": "updateQuorumNumerator",
      "outputs": [],
      "stateMutability": "nonpayable",
      "type": "function"
    },
    {
      "inputs": [
        {
          "internalType": "contract TimelockController",
          "name": "newTimelock",
          "type": "address"
        }
      ],
      "name": "updateTimelock",
      "outputs": [],
      "stateMutability": "nonpayable",
      "type": "function"
    },
    {
      "inputs": [],
      "name": "version",
      "outputs": [
        {
          "internalType": "string",
          "name": "",
          "type": "string"
        }
      ],
      "stateMutability": "view",
      "type": "function"
    },
    {
      "inputs": [],
      "name": "votingDelay",
      "outputs": [
        {
          "internalType": "uint256",
          "name": "",
          "type": "uint256"
        }
      ],
      "stateMutability": "view",
      "type": "function"
    },
    {
      "inputs": [],
      "name": "votingPeriod",
      "outputs": [
        {
          "internalType": "uint256",
          "name": "",
          "type": "uint256"
        }
      ],
      "stateMutability": "view",
      "type": "function"
    },
    {
      "stateMutability": "payable",
      "type": "receive"
    }
  ],
  "bytecode": "0x6101606040523480156200001257600080fd5b506040516200589d3803806200589d833981810160405281019062000038919062000481565b8383866040518060400160405280601081526020017f476f7665726e6f72436f6e7472616374000000000000000000000000000000008152508062000082620001c760201b60201c565b60008280519060200120905060008280519060200120905060007f8b73c3c69bb8fe3d512ecc4cf759cc79239f7b179b0ffacaa9a75d522b39400f90508260e081815250508161010081815250504660a08181525050620000eb8184846200020460201b60201c565b608081815250503073ffffffffffffffffffffffffffffffffffffffff1660c08173ffffffffffffffffffffffffffffffffffffffff1660601b81525050806101208181525050505050505080600090805190602001906200014f9291906200038c565b50508073ffffffffffffffffffffffffffffffffffffffff166101408173ffffffffffffffffffffffffffffffffffffffff1660601b81525050506200019b816200024060201b60201c565b50620001ad81620002e260201b60201c565b5080600681905550816007819055505050505050620007f3565b60606040518060400160405280600181526020017f3100000000000000000000000000000000000000000000000000000000000000815250905090565b60008383834630604051602001620002219594939291906200058a565b6040516020818303038152906040528051906020012090509392505050565b620002506200038360201b60201c565b81111562000295576040517f08c379a00000000000000000000000000000000000000000000000000000000081526004016200028c90620005e7565b60405180910390fd5b60006003549050816003819055507f0553476bf02ef2726e8ce5ced78d63e26e602e4a2257b1f559418e24b46339978183604051620002d692919062000609565b60405180910390a15050565b7f08f74ea46ef7894f65eabfb5e6e695de773a000b47c529ab559178069b226401600460009054906101000a900473ffffffffffffffffffffffffffffffffffffffff1682604051620003379291906200055d565b60405180910390a180600460006101000a81548173ffffffffffffffffffffffffffffffffffffffff021916908373ffffffffffffffffffffffffffffffffffffffff16021790555050565b60006064905090565b8280546200039a90620006cb565b90600052602060002090601f016020900481019282620003be57600085556200040a565b82601f10620003d957805160ff19168380011785556200040a565b828001600101855582156200040a579182015b8281111562000409578251825591602001919060010190620003ec565b5b5090506200041991906200041d565b5090565b5b80821115620004385760008160009055506001016200041e565b5090565b6000815190506200044d81620007a5565b92915050565b6000815190506200046481620007bf565b92915050565b6000815190506200047b81620007d9565b92915050565b600080600080600060a086880312156200049a57600080fd5b6000620004aa888289016200043c565b9550506020620004bd8882890162000453565b9450506040620004d0888289016200046a565b9350506060620004e3888289016200046a565b9250506080620004f6888289016200046a565b9150509295509295909350565b6200050e8162000647565b82525050565b6200051f816200066f565b82525050565b60006200053460438362000636565b9150620005418262000730565b606082019050919050565b6200055781620006c1565b82525050565b600060408201905062000574600083018562000503565b62000583602083018462000503565b9392505050565b600060a082019050620005a1600083018862000514565b620005b0602083018762000514565b620005bf604083018662000514565b620005ce60608301856200054c565b620005dd608083018462000503565b9695505050505050565b60006020820190508181036000830152620006028162000525565b9050919050565b60006040820190506200062060008301856200054c565b6200062f60208301846200054c565b9392505050565b600082825260208201905092915050565b60006200065482620006a1565b9050919050565b60006200066882620006a1565b9050919050565b6000819050919050565b6000620006868262000647565b9050919050565b60006200069a826200065b565b9050919050565b600073ffffffffffffffffffffffffffffffffffffffff82169050919050565b6000819050919050565b60006002820490506001821680620006e457607f821691505b60208210811415620006fb57620006fa62000701565b5b50919050565b7f4e487b7100000000000000000000000000000000000000000000000000000000600052602260045260246000fd5b7f476f7665726e6f72566f74657351756f72756d4672616374696f6e3a2071756f60008201527f72756d4e756d657261746f72206f7665722071756f72756d44656e6f6d696e6160208201527f746f720000000000000000000000000000000000000000000000000000000000604082015250565b620007b08162000679565b8114620007bc57600080fd5b50565b620007ca816200068d565b8114620007d657600080fd5b50565b620007e481620006c1565b8114620007f057600080fd5b50565b60805160a05160c05160601c60e05161010051610120516101405160601c61503b620008626000396000818161153101528181611ed10152611f960152600061221e015260006122600152600061223f01526000612174015260006121ca015260006121f3015261503b6000f3fe6080604052600436106101e75760003560e01c80637b3c71d311610102578063c28bc2fa11610095578063deaaa7cc11610064578063deaaa7cc146107d1578063eb9019d4146107fc578063f8ce560a14610839578063fc0c546a146108765761022d565b8063c28bc2fa14610715578063c59057e41461073e578063d33219b41461077b578063dd4e2ba5146107a65761022d565b8063a890c910116100d1578063a890c91014610647578063ab58fb8e14610670578063b58131b0146106ad578063c01f9e37146106d85761022d565b80637b3c71d3146105775780637d5e81e2146105b457806397c3d334146105f1578063a7713a701461061c5761022d565b80633932abb11161017a578063544ffc9c11610149578063544ffc9c146104a557806354fd4d50146104e4578063567813881461050f578063725ae3dc1461054c5761022d565b80633932abb1146103c35780633bccf4fd146103ee5780633e4f49e61461042b57806343859632146104685761022d565b8063102d7f2c116101b6578063102d7f2c146102ee578063160cbed7146103195780632656227d146103565780632d63f693146103865761022d565b806301ffc9a71461023257806302a251a31461026f57806306f3f9e61461029a57806306fdde03146102c35761022d565b3661022d573073ffffffffffffffffffffffffffffffffffffffff1661020b6108a1565b73ffffffffffffffffffffffffffffffffffffffff161461022b57600080fd5b005b600080fd5b34801561023e57600080fd5b5061025960048036038101906102549190613438565b6108b0565b6040516102669190613e59565b60405180910390f35b34801561027b57600080fd5b506102846108c2565b60405161029191906141f6565b60405180910390f35b3480156102a657600080fd5b506102c160048036038101906102bc919061348a565b6108cc565b005b3480156102cf57600080fd5b506102d8610954565b6040516102e59190613f94565b60405180910390f35b3480156102fa57600080fd5b506103036109e6565b60405161031091906141f6565b60405180910390f35b34801561032557600080fd5b50610340600480360381019061033b9190613278565b6109ec565b60405161034d91906141f6565b60405180910390f35b610370600480360381019061036b9190613278565b610d10565b60405161037d91906141f6565b60405180910390f35b34801561039257600080fd5b506103ad60048036038101906103a8919061348a565b610edb565b6040516103ba91906141f6565b60405180910390f35b3480156103cf57600080fd5b506103d8610f49565b6040516103e591906141f6565b60405180910390f35b3480156103fa57600080fd5b50610415600480360381019061041091906135c0565b610f53565b60405161042291906141f6565b60405180910390f35b34801561043757600080fd5b50610452600480360381019061044d919061348a565b610fdd565b60405161045f9190613f79565b60405180910390f35b34801561047457600080fd5b5061048f600480360381019061048a91906134dc565b610fef565b60405161049c9190613e59565b60405180910390f35b3480156104b157600080fd5b506104cc60048036038101906104c7919061348a565b61105a565b6040516104db939291906142ea565b60405180910390f35b3480156104f057600080fd5b506104f9611092565b6040516105069190613f94565b60405180910390f35b34801561051b57600080fd5b5061053660048036038101906105319190613518565b6110cf565b60405161054391906141f6565b60405180910390f35b34801561055857600080fd5b50610561611100565b60405161056e91906141f6565b60405180910390f35b34801561058357600080fd5b5061059e60048036038101906105999190613554565b611106565b6040516105ab91906141f6565b60405180910390f35b3480156105c057600080fd5b506105db60048036038101906105d69190613323565b61116e565b6040516105e891906141f6565b60405180910390f35b3480156105fd57600080fd5b50610606611186565b60405161061391906141f6565b60405180910390f35b34801561062857600080fd5b5061063161118f565b60405161063e91906141f6565b60405180910390f35b34801561065357600080fd5b5061066e60048036038101906106699190613461565b611199565b005b34801561067c57600080fd5b506106976004803603810190610692919061348a565b611221565b6040516106a491906141f6565b60405180910390f35b3480156106b957600080fd5b506106c26112fd565b6040516106cf91906141f6565b60405180910390f35b3480156106e457600080fd5b506106ff60048036038101906106fa919061348a565b611302565b60405161070c91906141f6565b60405180910390f35b34801561072157600080fd5b5061073c6004803603810190610737919061320c565b611370565b005b34801561074a57600080fd5b5061076560048036038101906107609190613278565b611442565b60405161077291906141f6565b60405180910390f35b34801561078757600080fd5b5061079061147e565b60405161079d9190613cb4565b60405180910390f35b3480156107b257600080fd5b506107bb6114a8565b6040516107c89190613f94565b60405180910390f35b3480156107dd57600080fd5b506107e66114e5565b6040516107f39190613e74565b60405180910390f35b34801561080857600080fd5b50610823600480360381019061081e91906131d0565b611509565b60405161083091906141f6565b60405180910390f35b34801561084557600080fd5b50610860600480360381019061085b919061348a565b61151d565b60405161086d91906141f6565b60405180910390f35b34801561088257600080fd5b5061088b61152f565b6040516108989190613f5e565b60405180910390f35b60006108ab611553565b905090565b60006108bb8261157d565b9050919050565b6000600754905090565b6108d46108a1565b73ffffffffffffffffffffffffffffffffffffffff166108f26115f7565b73ffffffffffffffffffffffffffffffffffffffff1614610948576040517f08c379a000000000000000000000000000000000000000000000000000000000815260040161093f90613fd6565b60405180910390fd5b610951816115ff565b50565b60606000805461096390614892565b80601f016020809104026020016040519081016040528092919081815260200182805461098f90614892565b80156109dc5780601f106109b1576101008083540402835291602001916109dc565b820191906000526020600020905b8154815290600101906020018083116109bf57829003601f168201915b5050505050905090565b60065481565b6000806109fb86868686611442565b905060046007811115610a37577f4e487b7100000000000000000000000000000000000000000000000000000000600052602160045260246000fd5b610a4082610fdd565b6007811115610a78577f4e487b7100000000000000000000000000000000000000000000000000000000600052602160045260246000fd5b14610ab8576040517f08c379a0000000000000000000000000000000000000000000000000000000008152600401610aaf90614156565b60405180910390fd5b6000600460009054906101000a900473ffffffffffffffffffffffffffffffffffffffff1673ffffffffffffffffffffffffffffffffffffffff1663f27a0c926040518163ffffffff1660e01b815260040160206040518083038186803b158015610b2257600080fd5b505afa158015610b36573d6000803e3d6000fd5b505050506040513d601f19601f82011682018060405250810190610b5a91906134b3565b9050600460009054906101000a900473ffffffffffffffffffffffffffffffffffffffff1673ffffffffffffffffffffffffffffffffffffffff1663b1c5f4278888886000896040518663ffffffff1660e01b8152600401610bc0959493929190613d7b565b60206040518083038186803b158015610bd857600080fd5b505afa158015610bec573d6000803e3d6000fd5b505050506040513d601f19601f82011682018060405250810190610c10919061340f565b6005600084815260200190815260200160002081905550600460009054906101000a900473ffffffffffffffffffffffffffffffffffffffff1673ffffffffffffffffffffffffffffffffffffffff16638f2a0bb0888888600089876040518763ffffffff1660e01b8152600401610c8d96959493929190613de3565b600060405180830381600087803b158015610ca757600080fd5b505af1158015610cbb573d6000803e3d6000fd5b505050507f9a2e42fd6722813d69113e7d0079d3d940171428df7373df9c7f7617cfda2892828242610ced91906145bb565b604051610cfb9291906142c1565b60405180910390a18192505050949350505050565b600080610d1f86868686611442565b90506000610d2c82610fdd565b905060046007811115610d68577f4e487b7100000000000000000000000000000000000000000000000000000000600052602160045260246000fd5b816007811115610da1577f4e487b7100000000000000000000000000000000000000000000000000000000600052602160045260246000fd5b1480610e1d575060056007811115610de2577f4e487b7100000000000000000000000000000000000000000000000000000000600052602160045260246000fd5b816007811115610e1b577f4e487b7100000000000000000000000000000000000000000000000000000000600052602160045260246000fd5b145b610e5c576040517f08c379a0000000000000000000000000000000000000000000000000000000008152600401610e5390614156565b60405180910390fd5b600180600084815260200190815260200160002060020160006101000a81548160ff0219169083151502179055507f712ae1383f79ac853f8d882153778e0260ef8f03b504e2866e0593e04d2b291f82604051610eb991906141f6565b60405180910390a1610ece8288888888611694565b8192505050949350505050565b6000610f38600160008481526020019081526020016000206000016040518060200160405290816000820160009054906101000a900467ffffffffffffffff1667ffffffffffffffff1667ffffffffffffffff16815250506116a8565b67ffffffffffffffff169050919050565b6000600654905090565b600080610fb4610fac7f150214d74d59b7d1e90c73fc22ef3d991dd0a76b046543d4d80ab92d2a50328f8989604051602001610f9193929190613ee2565b604051602081830303815290604052805190602001206116b6565b8686866116d0565b9050610fd1878288604051806020016040528060008152506116fb565b91505095945050505050565b6000610fe88261189b565b9050919050565b60006002600084815260200190815260200160002060030160008373ffffffffffffffffffffffffffffffffffffffff1673ffffffffffffffffffffffffffffffffffffffff16815260200190815260200160002060009054906101000a900460ff16905092915050565b600080600080600260008681526020019081526020016000209050806000015481600101548260020154935093509350509193909250565b60606040518060400160405280600181526020017f3100000000000000000000000000000000000000000000000000000000000000815250905090565b6000806110da6115f7565b90506110f7848285604051806020016040528060008152506116fb565b91505092915050565b60075481565b6000806111116115f7565b905061116386828787878080601f016020809104026020016040519081016040528093929190818152602001838380828437600081840152601f19601f820116905080830192505050505050506116fb565b915050949350505050565b600061117c85858585611ad9565b9050949350505050565b60006064905090565b6000600354905090565b6111a16108a1565b73ffffffffffffffffffffffffffffffffffffffff166111bf6115f7565b73ffffffffffffffffffffffffffffffffffffffff1614611215576040517f08c379a000000000000000000000000000000000000000000000000000000000815260040161120c90613fd6565b60405180910390fd5b61121e81611dff565b50565b600080600460009054906101000a900473ffffffffffffffffffffffffffffffffffffffff1673ffffffffffffffffffffffffffffffffffffffff1663d45c443560056000868152602001908152602001600020546040518263ffffffff1660e01b81526004016112929190613e74565b60206040518083038186803b1580156112aa57600080fd5b505afa1580156112be573d6000803e3d6000fd5b505050506040513d601f19601f820116820180604052508101906112e291906134b3565b9050600181146112f257806112f5565b60005b915050919050565b600090565b600061135f600160008481526020019081526020016000206001016040518060200160405290816000820160009054906101000a900467ffffffffffffffff1667ffffffffffffffff1667ffffffffffffffff16815250506116a8565b67ffffffffffffffff169050919050565b6113786108a1565b73ffffffffffffffffffffffffffffffffffffffff166113966115f7565b73ffffffffffffffffffffffffffffffffffffffff16146113ec576040517f08c379a00000000000000000000000000000000000000000000000000000000081526004016113e390613fd6565b60405180910390fd5b61143b8483838080601f016020809104026020016040519081016040528093929190818152602001838380828437600081840152601f19601f8201169050808301925050505050505085611e9e565b5050505050565b60008484848460405160200161145b9493929190613d21565b6040516020818303038152906040528051906020012060001c9050949350505050565b6000600460009054906101000a900473ffffffffffffffffffffffffffffffffffffffff16905090565b60606040518060400160405280602081526020017f737570706f72743d627261766f2671756f72756d3d666f722c6162737461696e815250905090565b7f150214d74d59b7d1e90c73fc22ef3d991dd0a76b046543d4d80ab92d2a50328f81565b60006115158383611ecd565b905092915050565b600061152882611f82565b9050919050565b7f000000000000000000000000000000000000000000000000000000000000000081565b6000600460009054906101000a900473ffffffffffffffffffffffffffffffffffffffff16905090565b60007f6e665ced000000000000000000000000000000000000000000000000000000007bffffffffffffffffffffffffffffffffffffffffffffffffffffffff1916827bffffffffffffffffffffffffffffffffffffffffffffffffffffffff191614806115f057506115ef82612058565b5b9050919050565b600033905090565b611607611186565b811115611649576040517f08c379a000000000000000000000000000000000000000000000000000000000815260040161164090613ff6565b60405180910390fd5b60006003549050816003819055507f0553476bf02ef2726e8ce5ced78d63e26e602e4a2257b1f559418e24b463399781836040516116889291906142c1565b60405180910390a15050565b6116a185858585856120d2565b5050505050565b600081600001519050919050565b60006116c96116c3612170565b8361228a565b9050919050565b60008060006116e1878787876122bd565b915091506116ee816123ca565b8192505050949350505050565b6000806001600087815260200190815260200160002090506001600781111561174d577f4e487b7100000000000000000000000000000000000000000000000000000000600052602160045260246000fd5b61175687610fdd565b600781111561178e577f4e487b7100000000000000000000000000000000000000000000000000000000600052602160045260246000fd5b146117ce576040517f08c379a00000000000000000000000000000000000000000000000000000000081526004016117c5906140d6565b60405180910390fd5b600061182c8661181d846000016040518060200160405290816000820160009054906101000a900467ffffffffffffffff1667ffffffffffffffff1667ffffffffffffffff16815250506116a8565b67ffffffffffffffff16611509565b905061183a8787878461271b565b8573ffffffffffffffffffffffffffffffffffffffff167fb8e138887d0aa13bab447e82de9d5c1777041ecd21ca36ba824ff1e6c07ddda4888784886040516118869493929190614321565b60405180910390a28092505050949350505050565b6000806118a783612993565b9050600460078111156118e3577f4e487b7100000000000000000000000000000000000000000000000000000000600052602160045260246000fd5b81600781111561191c577f4e487b7100000000000000000000000000000000000000000000000000000000600052602160045260246000fd5b1461192a5780915050611ad4565b6000600560008581526020019081526020016000205490506000801b811415611957578192505050611ad4565b600460009054906101000a900473ffffffffffffffffffffffffffffffffffffffff1673ffffffffffffffffffffffffffffffffffffffff16632ab0f529826040518263ffffffff1660e01b81526004016119b29190613e74565b60206040518083038186803b1580156119ca57600080fd5b505afa1580156119de573d6000803e3d6000fd5b505050506040513d601f19601f82011682018060405250810190611a0291906133e6565b15611a1257600792505050611ad4565b600460009054906101000a900473ffffffffffffffffffffffffffffffffffffffff1673ffffffffffffffffffffffffffffffffffffffff1663584b153e826040518263ffffffff1660e01b8152600401611a6d9190613e74565b60206040518083038186803b158015611a8557600080fd5b505afa158015611a99573d6000803e3d6000fd5b505050506040513d601f19601f82011682018060405250810190611abd91906133e6565b15611acd57600592505050611ad4565b6002925050505b919050565b6000611ae36112fd565b611af933600143611af491906146da565b611509565b1015611b3a576040517f08c379a0000000000000000000000000000000000000000000000000000000008152600401611b3190614016565b60405180910390fd5b6000611b4f8686868680519060200120611442565b90508451865114611b95576040517f08c379a0000000000000000000000000000000000000000000000000000000008152600401611b8c90614056565b60405180910390fd5b8351865114611bd9576040517f08c379a0000000000000000000000000000000000000000000000000000000008152600401611bd090614056565b60405180910390fd5b6000865111611c1d576040517f08c379a0000000000000000000000000000000000000000000000000000000008152600401611c14906140f6565b60405180910390fd5b6000600160008381526020019081526020016000209050611c7d816000016040518060200160405290816000820160009054906101000a900467ffffffffffffffff1667ffffffffffffffff1667ffffffffffffffff1681525050612aa8565b611cbc576040517f08c379a0000000000000000000000000000000000000000000000000000000008152600401611cb3906141b6565b60405180910390fd5b6000611cce611cc9610f49565b612ac2565b611cd743612ac2565b611ce19190614611565b90506000611cf5611cf06108c2565b612ac2565b82611d009190614611565b9050611d188284600001612b1990919063ffffffff16565b611d2e8184600101612b1990919063ffffffff16565b7f7d84a6263ae0d98d3329bd7b46bb4e8d6f98cd35a7adb45c274c8b7fd5ebd5e084611d586115f7565b8b8b8d5167ffffffffffffffff811115611d9b577f4e487b7100000000000000000000000000000000000000000000000000000000600052604160045260246000fd5b604051908082528060200260200182016040528015611dce57816020015b6060815260200190600190039081611db95790505b508c88888e604051611de899989796959493929190614211565b60405180910390a183945050505050949350505050565b7f08f74ea46ef7894f65eabfb5e6e695de773a000b47c529ab559178069b226401600460009054906101000a900473ffffffffffffffffffffffffffffffffffffffff1682604051611e52929190613ccf565b60405180910390a180600460006101000a81548173ffffffffffffffffffffffffffffffffffffffff021916908373ffffffffffffffffffffffffffffffffffffffff16021790555050565b6060611ec4848484604051806060016040528060298152602001614fdd60299139612b48565b90509392505050565b60007f000000000000000000000000000000000000000000000000000000000000000073ffffffffffffffffffffffffffffffffffffffff16633a46b1a884846040518363ffffffff1660e01b8152600401611f2a929190613cf8565b60206040518083038186803b158015611f4257600080fd5b505afa158015611f56573d6000803e3d6000fd5b505050506040513d601f19601f82011682018060405250810190611f7a91906134b3565b905092915050565b6000611f8c611186565b611f9461118f565b7f000000000000000000000000000000000000000000000000000000000000000073ffffffffffffffffffffffffffffffffffffffff16638e539e8c856040518263ffffffff1660e01b8152600401611fed91906141f6565b60206040518083038186803b15801561200557600080fd5b505afa158015612019573d6000803e3d6000fd5b505050506040513d601f19601f8201168201806040525081019061203d91906134b3565b6120479190614680565b612051919061464f565b9050919050565b60007fbf26d897000000000000000000000000000000000000000000000000000000007bffffffffffffffffffffffffffffffffffffffffffffffffffffffff1916827bffffffffffffffffffffffffffffffffffffffffffffffffffffffff191614806120cb57506120ca82612c5c565b5b9050919050565b600460009054906101000a900473ffffffffffffffffffffffffffffffffffffffff1673ffffffffffffffffffffffffffffffffffffffff1663e38335e5348686866000876040518763ffffffff1660e01b8152600401612137959493929190613d7b565b6000604051808303818588803b15801561215057600080fd5b505af1158015612164573d6000803e3d6000fd5b50505050505050505050565b60007f000000000000000000000000000000000000000000000000000000000000000073ffffffffffffffffffffffffffffffffffffffff163073ffffffffffffffffffffffffffffffffffffffff161480156121ec57507f000000000000000000000000000000000000000000000000000000000000000046145b15612219577f00000000000000000000000000000000000000000000000000000000000000009050612287565b6122847f00000000000000000000000000000000000000000000000000000000000000007f00000000000000000000000000000000000000000000000000000000000000007f0000000000000000000000000000000000000000000000000000000000000000612cc6565b90505b90565b6000828260405160200161229f929190613c7d565b60405160208183030381529060405280519060200120905092915050565b6000807f7fffffffffffffffffffffffffffffff5d576e7357a4501ddfe92f46681b20a08360001c11156122f85760006003915091506123c1565b601b8560ff16141580156123105750601c8560ff1614155b156123225760006004915091506123c1565b6000600187878787604051600081526020016040526040516123479493929190613f19565b6020604051602081039080840390855afa158015612369573d6000803e3d6000fd5b505050602060405103519050600073ffffffffffffffffffffffffffffffffffffffff168173ffffffffffffffffffffffffffffffffffffffff1614156123b8576000600192509250506123c1565b80600092509250505b94509492505050565b60006004811115612404577f4e487b7100000000000000000000000000000000000000000000000000000000600052602160045260246000fd5b81600481111561243d577f4e487b7100000000000000000000000000000000000000000000000000000000600052602160045260246000fd5b141561244857612718565b60016004811115612482577f4e487b7100000000000000000000000000000000000000000000000000000000600052602160045260246000fd5b8160048111156124bb577f4e487b7100000000000000000000000000000000000000000000000000000000600052602160045260246000fd5b14156124fc576040517f08c379a00000000000000000000000000000000000000000000000000000000081526004016124f390613fb6565b60405180910390fd5b60026004811115612536577f4e487b7100000000000000000000000000000000000000000000000000000000600052602160045260246000fd5b81600481111561256f577f4e487b7100000000000000000000000000000000000000000000000000000000600052602160045260246000fd5b14156125b0576040517f08c379a00000000000000000000000000000000000000000000000000000000081526004016125a790614036565b60405180910390fd5b600360048111156125ea577f4e487b7100000000000000000000000000000000000000000000000000000000600052602160045260246000fd5b816004811115612623577f4e487b7100000000000000000000000000000000000000000000000000000000600052602160045260246000fd5b1415612664576040517f08c379a000000000000000000000000000000000000000000000000000000000815260040161265b90614076565b60405180910390fd5b60048081111561269d577f4e487b7100000000000000000000000000000000000000000000000000000000600052602160045260246000fd5b8160048111156126d6577f4e487b7100000000000000000000000000000000000000000000000000000000600052602160045260246000fd5b1415612717576040517f08c379a000000000000000000000000000000000000000000000000000000000815260040161270e90614116565b60405180910390fd5b5b50565b60006002600086815260200190815260200160002090508060030160008573ffffffffffffffffffffffffffffffffffffffff1673ffffffffffffffffffffffffffffffffffffffff16815260200190815260200160002060009054906101000a900460ff16156127c1576040517f08c379a00000000000000000000000000000000000000000000000000000000081526004016127b890614096565b60405180910390fd5b60018160030160008673ffffffffffffffffffffffffffffffffffffffff1673ffffffffffffffffffffffffffffffffffffffff16815260200190815260200160002060006101000a81548160ff02191690831515021790555060006002811115612855577f4e487b7100000000000000000000000000000000000000000000000000000000600052602160045260246000fd5b60ff168360ff161415612882578181600001600082825461287691906145bb565b9250508190555061298c565b600160028111156128bc577f4e487b7100000000000000000000000000000000000000000000000000000000600052602160045260246000fd5b60ff168360ff1614156128e957818160010160008282546128dd91906145bb565b9250508190555061298b565b600280811115612922577f4e487b7100000000000000000000000000000000000000000000000000000000600052602160045260246000fd5b60ff168360ff16141561294f578181600201600082825461294391906145bb565b9250508190555061298a565b6040517f08c379a000000000000000000000000000000000000000000000000000000000815260040161298190614196565b60405180910390fd5b5b5b5050505050565b6000806001600084815260200190815260200160002090508060020160009054906101000a900460ff16156129cc576007915050612aa3565b8060020160019054906101000a900460ff16156129ed576002915050612aa3565b60006129f884610edb565b90506000811415612a3e576040517f08c379a0000000000000000000000000000000000000000000000000000000008152600401612a3590614176565b60405180910390fd5b438110612a5057600092505050612aa3565b6000612a5b85611302565b9050438110612a705760019350505050612aa3565b612a7985612d00565b8015612a8a5750612a8985612d47565b5b15612a9b5760049350505050612aa3565b600393505050505b919050565b600080826000015167ffffffffffffffff16149050919050565b600067ffffffffffffffff8016821115612b11576040517f08c379a0000000000000000000000000000000000000000000000000000000008152600401612b0890614136565b60405180910390fd5b819050919050565b808260000160006101000a81548167ffffffffffffffff021916908367ffffffffffffffff1602179055505050565b606082471015612b8d576040517f08c379a0000000000000000000000000000000000000000000000000000000008152600401612b84906140b6565b60405180910390fd5b612b9685612d72565b612bd5576040517f08c379a0000000000000000000000000000000000000000000000000000000008152600401612bcc906141d6565b60405180910390fd5b6000808673ffffffffffffffffffffffffffffffffffffffff168587604051612bfe9190613c66565b60006040518083038185875af1925050503d8060008114612c3b576040519150601f19603f3d011682016040523d82523d6000602084013e612c40565b606091505b5091509150612c50828286612d95565b92505050949350505050565b60007f01ffc9a7000000000000000000000000000000000000000000000000000000007bffffffffffffffffffffffffffffffffffffffffffffffffffffffff1916827bffffffffffffffffffffffffffffffffffffffffffffffffffffffff1916149050919050565b60008383834630604051602001612ce1959493929190613e8f565b6040516020818303038152906040528051906020012090509392505050565b60008060026000848152602001908152602001600020905080600201548160010154612d2c91906145bb565b612d3d612d3885610edb565b61151d565b1115915050919050565b6000806002600084815260200190815260200160002090508060000154816001015411915050919050565b6000808273ffffffffffffffffffffffffffffffffffffffff163b119050919050565b60608315612da557829050612df5565b600083511115612db85782518084602001fd5b816040517f08c379a0000000000000000000000000000000000000000000000000000000008152600401612dec9190613f94565b60405180910390fd5b9392505050565b6000612e0f612e0a84614392565b61436d565b90508083825260208201905082856020860282011115612e2e57600080fd5b60005b85811015612e5e5781612e448882612fad565b845260208401935060208301925050600181019050612e31565b5050509392505050565b6000612e7b612e76846143be565b61436d565b9050808382526020820190508260005b85811015612ebb5781358501612ea188826130de565b845260208401935060208301925050600181019050612e8b565b5050509392505050565b6000612ed8612ed3846143ea565b61436d565b90508083825260208201905082856020860282011115612ef757600080fd5b60005b85811015612f275781612f0d8882613191565b845260208401935060208301925050600181019050612efa565b5050509392505050565b6000612f44612f3f84614416565b61436d565b905082815260208101848484011115612f5c57600080fd5b612f67848285614850565b509392505050565b6000612f82612f7d84614447565b61436d565b905082815260208101848484011115612f9a57600080fd5b612fa5848285614850565b509392505050565b600081359050612fbc81614f3b565b92915050565b600082601f830112612fd357600080fd5b8135612fe3848260208601612dfc565b91505092915050565b600082601f830112612ffd57600080fd5b813561300d848260208601612e68565b91505092915050565b600082601f83011261302757600080fd5b8135613037848260208601612ec5565b91505092915050565b60008151905061304f81614f52565b92915050565b60008135905061306481614f69565b92915050565b60008151905061307981614f69565b92915050565b60008135905061308e81614f80565b92915050565b60008083601f8401126130a657600080fd5b8235905067ffffffffffffffff8111156130bf57600080fd5b6020830191508360018202830111156130d757600080fd5b9250929050565b600082601f8301126130ef57600080fd5b81356130ff848260208601612f31565b91505092915050565b60008135905061311781614f97565b92915050565b60008083601f84011261312f57600080fd5b8235905067ffffffffffffffff81111561314857600080fd5b60208301915083600182028301111561316057600080fd5b9250929050565b600082601f83011261317857600080fd5b8135613188848260208601612f6f565b91505092915050565b6000813590506131a081614fae565b92915050565b6000815190506131b581614fae565b92915050565b6000813590506131ca81614fc5565b92915050565b600080604083850312156131e357600080fd5b60006131f185828601612fad565b925050602061320285828601613191565b9150509250929050565b6000806000806060858703121561322257600080fd5b600061323087828801612fad565b945050602061324187828801613191565b935050604085013567ffffffffffffffff81111561325e57600080fd5b61326a87828801613094565b925092505092959194509250565b6000806000806080858703121561328e57600080fd5b600085013567ffffffffffffffff8111156132a857600080fd5b6132b487828801612fc2565b945050602085013567ffffffffffffffff8111156132d157600080fd5b6132dd87828801613016565b935050604085013567ffffffffffffffff8111156132fa57600080fd5b61330687828801612fec565b925050606061331787828801613055565b91505092959194509250565b6000806000806080858703121561333957600080fd5b600085013567ffffffffffffffff81111561335357600080fd5b61335f87828801612fc2565b945050602085013567ffffffffffffffff81111561337c57600080fd5b61338887828801613016565b935050604085013567ffffffffffffffff8111156133a557600080fd5b6133b187828801612fec565b925050606085013567ffffffffffffffff8111156133ce57600080fd5b6133da87828801613167565b91505092959194509250565b6000602082840312156133f857600080fd5b600061340684828501613040565b91505092915050565b60006020828403121561342157600080fd5b600061342f8482850161306a565b91505092915050565b60006020828403121561344a57600080fd5b60006134588482850161307f565b91505092915050565b60006020828403121561347357600080fd5b600061348184828501613108565b91505092915050565b60006020828403121561349c57600080fd5b60006134aa84828501613191565b91505092915050565b6000602082840312156134c557600080fd5b60006134d3848285016131a6565b91505092915050565b600080604083850312156134ef57600080fd5b60006134fd85828601613191565b925050602061350e85828601612fad565b9150509250929050565b6000806040838503121561352b57600080fd5b600061353985828601613191565b925050602061354a858286016131bb565b9150509250929050565b6000806000806060858703121561356a57600080fd5b600061357887828801613191565b9450506020613589878288016131bb565b935050604085013567ffffffffffffffff8111156135a657600080fd5b6135b28782880161311d565b925092505092959194509250565b600080600080600060a086880312156135d857600080fd5b60006135e688828901613191565b95505060206135f7888289016131bb565b9450506040613608888289016131bb565b935050606061361988828901613055565b925050608061362a88828901613055565b9150509295509295909350565b6000613643838361368f565b60208301905092915050565b600061365b8383613888565b905092915050565b600061366f838361391f565b905092915050565b60006136838383613c2a565b60208301905092915050565b6136988161470e565b82525050565b6136a78161470e565b82525050565b60006136b8826144b8565b6136c2818561452e565b93506136cd83614478565b8060005b838110156136fe5781516136e58882613637565b97506136f0836144fa565b9250506001810190506136d1565b5085935050505092915050565b6000613716826144c3565b613720818561453f565b93508360208202850161373285614488565b8060005b8581101561376e578484038952815161374f858261364f565b945061375a83614507565b925060208a01995050600181019050613736565b50829750879550505050505092915050565b600061378b826144ce565b6137958185614550565b9350836020820285016137a785614498565b8060005b858110156137e357848403895281516137c48582613663565b94506137cf83614514565b925060208a019950506001810190506137ab565b50829750879550505050505092915050565b6000613800826144d9565b61380a8185614561565b9350613815836144a8565b8060005b8381101561384657815161382d8882613677565b975061383883614521565b925050600181019050613819565b5085935050505092915050565b61385c81614732565b82525050565b61386b8161473e565b82525050565b61388261387d8261473e565b6148f5565b82525050565b6000613893826144e4565b61389d8185614572565b93506138ad81856020860161485f565b6138b6816149ea565b840191505092915050565b60006138cc826144e4565b6138d68185614583565b93506138e681856020860161485f565b80840191505092915050565b6138fb816147ee565b82525050565b61390a81614812565b82525050565b61391981614824565b82525050565b600061392a826144ef565b613934818561458e565b935061394481856020860161485f565b61394d816149ea565b840191505092915050565b6000613963826144ef565b61396d818561459f565b935061397d81856020860161485f565b613986816149ea565b840191505092915050565b600061399e60188361459f565b91506139a982614a08565b602082019050919050565b60006139c160188361459f565b91506139cc82614a31565b602082019050919050565b60006139e460438361459f565b91506139ef82614a5a565b606082019050919050565b6000613a0760438361459f565b9150613a1282614acf565b606082019050919050565b6000613a2a601f8361459f565b9150613a3582614b44565b602082019050919050565b6000613a4d6002836145b0565b9150613a5882614b6d565b600282019050919050565b6000613a7060218361459f565b9150613a7b82614b96565b604082019050919050565b6000613a9360228361459f565b9150613a9e82614be5565b604082019050919050565b6000613ab660278361459f565b9150613ac182614c34565b604082019050919050565b6000613ad960268361459f565b9150613ae482614c83565b604082019050919050565b6000613afc60238361459f565b9150613b0782614cd2565b604082019050919050565b6000613b1f60188361459f565b9150613b2a82614d21565b602082019050919050565b6000613b4260228361459f565b9150613b4d82614d4a565b604082019050919050565b6000613b6560268361459f565b9150613b7082614d99565b604082019050919050565b6000613b8860218361459f565b9150613b9382614de8565b604082019050919050565b6000613bab601d8361459f565b9150613bb682614e37565b602082019050919050565b6000613bce60358361459f565b9150613bd982614e60565b604082019050919050565b6000613bf160218361459f565b9150613bfc82614eaf565b604082019050919050565b6000613c14601d8361459f565b9150613c1f82614efe565b602082019050919050565b613c33816147c3565b82525050565b613c42816147c3565b82525050565b613c518161483e565b82525050565b613c60816147e1565b82525050565b6000613c7282846138c1565b915081905092915050565b6000613c8882613a40565b9150613c948285613871565b602082019150613ca48284613871565b6020820191508190509392505050565b6000602082019050613cc9600083018461369e565b92915050565b6000604082019050613ce4600083018561369e565b613cf1602083018461369e565b9392505050565b6000604082019050613d0d600083018561369e565b613d1a6020830184613c39565b9392505050565b60006080820190508181036000830152613d3b81876136ad565b90508181036020830152613d4f81866137f5565b90508181036040830152613d63818561370b565b9050613d726060830184613862565b95945050505050565b600060a0820190508181036000830152613d9581886136ad565b90508181036020830152613da981876137f5565b90508181036040830152613dbd818661370b565b9050613dcc6060830185613910565b613dd96080830184613862565b9695505050505050565b600060c0820190508181036000830152613dfd81896136ad565b90508181036020830152613e1181886137f5565b90508181036040830152613e25818761370b565b9050613e346060830186613910565b613e416080830185613862565b613e4e60a0830184613c39565b979650505050505050565b6000602082019050613e6e6000830184613853565b92915050565b6000602082019050613e896000830184613862565b92915050565b600060a082019050613ea46000830188613862565b613eb16020830187613862565b613ebe6040830186613862565b613ecb6060830185613c39565b613ed8608083018461369e565b9695505050505050565b6000606082019050613ef76000830186613862565b613f046020830185613c39565b613f116040830184613c57565b949350505050565b6000608082019050613f2e6000830187613862565b613f3b6020830186613c57565b613f486040830185613862565b613f556060830184613862565b95945050505050565b6000602082019050613f7360008301846138f2565b92915050565b6000602082019050613f8e6000830184613901565b92915050565b60006020820190508181036000830152613fae8184613958565b905092915050565b60006020820190508181036000830152613fcf81613991565b9050919050565b60006020820190508181036000830152613fef816139b4565b9050919050565b6000602082019050818103600083015261400f816139d7565b9050919050565b6000602082019050818103600083015261402f816139fa565b9050919050565b6000602082019050818103600083015261404f81613a1d565b9050919050565b6000602082019050818103600083015261406f81613a63565b9050919050565b6000602082019050818103600083015261408f81613a86565b9050919050565b600060208201905081810360008301526140af81613aa9565b9050919050565b600060208201905081810360008301526140cf81613acc565b9050919050565b600060208201905081810360008301526140ef81613aef565b9050919050565b6000602082019050818103600083015261410f81613b12565b9050919050565b6000602082019050818103600083015261412f81613b35565b9050919050565b6000602082019050818103600083015261414f81613b58565b9050919050565b6000602082019050818103600083015261416f81613b7b565b9050919050565b6000602082019050818103600083015261418f81613b9e565b9050919050565b600060208201905081810360008301526141af81613bc1565b9050919050565b600060208201905081810360008301526141cf81613be4565b9050919050565b600060208201905081810360008301526141ef81613c07565b9050919050565b600060208201905061420b6000830184613c39565b92915050565b600061012082019050614227600083018c613c39565b614234602083018b61369e565b8181036040830152614246818a6136ad565b9050818103606083015261425a81896137f5565b9050818103608083015261426e8188613780565b905081810360a0830152614282818761370b565b905061429160c0830186613c48565b61429e60e0830185613c48565b8181036101008301526142b18184613958565b90509a9950505050505050505050565b60006040820190506142d66000830185613c39565b6142e36020830184613c39565b9392505050565b60006060820190506142ff6000830186613c39565b61430c6020830185613c39565b6143196040830184613c39565b949350505050565b60006080820190506143366000830187613c39565b6143436020830186613c57565b6143506040830185613c39565b81810360608301526143628184613958565b905095945050505050565b6000614377614388565b905061438382826148c4565b919050565b6000604051905090565b600067ffffffffffffffff8211156143ad576143ac6149bb565b5b602082029050602081019050919050565b600067ffffffffffffffff8211156143d9576143d86149bb565b5b602082029050602081019050919050565b600067ffffffffffffffff821115614405576144046149bb565b5b602082029050602081019050919050565b600067ffffffffffffffff821115614431576144306149bb565b5b61443a826149ea565b9050602081019050919050565b600067ffffffffffffffff821115614462576144616149bb565b5b61446b826149ea565b9050602081019050919050565b6000819050602082019050919050565b6000819050602082019050919050565b6000819050602082019050919050565b6000819050602082019050919050565b600081519050919050565b600081519050919050565b600081519050919050565b600081519050919050565b600081519050919050565b600081519050919050565b6000602082019050919050565b6000602082019050919050565b6000602082019050919050565b6000602082019050919050565b600082825260208201905092915050565b600082825260208201905092915050565b600082825260208201905092915050565b600082825260208201905092915050565b600082825260208201905092915050565b600081905092915050565b600082825260208201905092915050565b600082825260208201905092915050565b600081905092915050565b60006145c6826147c3565b91506145d1836147c3565b9250827fffffffffffffffffffffffffffffffffffffffffffffffffffffffffffffffff03821115614606576146056148ff565b5b828201905092915050565b600061461c826147cd565b9150614627836147cd565b92508267ffffffffffffffff03821115614644576146436148ff565b5b828201905092915050565b600061465a826147c3565b9150614665836147c3565b9250826146755761467461492e565b5b828204905092915050565b600061468b826147c3565b9150614696836147c3565b9250817fffffffffffffffffffffffffffffffffffffffffffffffffffffffffffffffff04831182151516156146cf576146ce6148ff565b5b828202905092915050565b60006146e5826147c3565b91506146f0836147c3565b925082821015614703576147026148ff565b5b828203905092915050565b6000614719826147a3565b9050919050565b600061472b826147a3565b9050919050565b60008115159050919050565b6000819050919050565b60007fffffffff0000000000000000000000000000000000000000000000000000000082169050919050565b600061477f82614720565b9050919050565b600081905061479482614f27565b919050565b6000819050919050565b600073ffffffffffffffffffffffffffffffffffffffff82169050919050565b6000819050919050565b600067ffffffffffffffff82169050919050565b600060ff82169050919050565b60006147f982614800565b9050919050565b600061480b826147a3565b9050919050565b600061481d82614786565b9050919050565b600061483761483283614799565b6149fb565b9050919050565b6000614849826147cd565b9050919050565b82818337600083830152505050565b60005b8381101561487d578082015181840152602081019050614862565b8381111561488c576000848401525b50505050565b600060028204905060018216806148aa57607f821691505b602082108114156148be576148bd61498c565b5b50919050565b6148cd826149ea565b810181811067ffffffffffffffff821117156148ec576148eb6149bb565b5b80604052505050565b6000819050919050565b7f4e487b7100000000000000000000000000000000000000000000000000000000600052601160045260246000fd5b7f4e487b7100000000000000000000000000000000000000000000000000000000600052601260045260246000fd5b7f4e487b7100000000000000000000000000000000000000000000000000000000600052602160045260246000fd5b7f4e487b7100000000000000000000000000000000000000000000000000000000600052602260045260246000fd5b7f4e487b7100000000000000000000000000000000000000000000000000000000600052604160045260246000fd5b6000601f19601f8301169050919050565b60008160001b9050919050565b7f45434453413a20696e76616c6964207369676e61747572650000000000000000600082015250565b7f476f7665726e6f723a206f6e6c79476f7665726e616e63650000000000000000600082015250565b7f476f7665726e6f72566f74657351756f72756d4672616374696f6e3a2071756f60008201527f72756d4e756d657261746f72206f7665722071756f72756d44656e6f6d696e6160208201527f746f720000000000000000000000000000000000000000000000000000000000604082015250565b7f476f7665726e6f72436f6d7061746962696c697479427261766f3a2070726f7060008201527f6f73657220766f7465732062656c6f772070726f706f73616c2074687265736860208201527f6f6c640000000000000000000000000000000000000000000000000000000000604082015250565b7f45434453413a20696e76616c6964207369676e6174757265206c656e67746800600082015250565b7f1901000000000000000000000000000000000000000000000000000000000000600082015250565b7f476f7665726e6f723a20696e76616c69642070726f706f73616c206c656e677460008201527f6800000000000000000000000000000000000000000000000000000000000000602082015250565b7f45434453413a20696e76616c6964207369676e6174757265202773272076616c60008201527f7565000000000000000000000000000000000000000000000000000000000000602082015250565b7f476f7665726e6f72566f74696e6753696d706c653a20766f746520616c72656160008201527f6479206361737400000000000000000000000000000000000000000000000000602082015250565b7f416464726573733a20696e73756666696369656e742062616c616e636520666f60008201527f722063616c6c0000000000000000000000000000000000000000000000000000602082015250565b7f476f7665726e6f723a20766f7465206e6f742063757272656e746c792061637460008201527f6976650000000000000000000000000000000000000000000000000000000000602082015250565b7f476f7665726e6f723a20656d7074792070726f706f73616c0000000000000000600082015250565b7f45434453413a20696e76616c6964207369676e6174757265202776272076616c60008201527f7565000000000000000000000000000000000000000000000000000000000000602082015250565b7f53616665436173743a2076616c756520646f65736e27742066697420696e203660008201527f3420626974730000000000000000000000000000000000000000000000000000602082015250565b7f476f7665726e6f723a2070726f706f73616c206e6f742073756363657373667560008201527f6c00000000000000000000000000000000000000000000000000000000000000602082015250565b7f476f7665726e6f723a20756e6b6e6f776e2070726f706f73616c206964000000600082015250565b7f476f7665726e6f72566f74696e6753696d706c653a20696e76616c696420766160008201527f6c756520666f7220656e756d20566f7465547970650000000000000000000000602082015250565b7f476f7665726e6f723a2070726f706f73616c20616c726561647920657869737460008201527f7300000000000000000000000000000000000000000000000000000000000000602082015250565b7f416464726573733a2063616c6c20746f206e6f6e2d636f6e7472616374000000600082015250565b60088110614f3857614f3761495d565b5b50565b614f448161470e565b8114614f4f57600080fd5b50565b614f5b81614732565b8114614f6657600080fd5b50565b614f728161473e565b8114614f7d57600080fd5b50565b614f8981614748565b8114614f9457600080fd5b50565b614fa081614774565b8114614fab57600080fd5b50565b614fb7816147c3565b8114614fc257600080fd5b50565b614fce816147e1565b8114614fd957600080fd5b5056fe416464726573733a206c6f772d6c6576656c2063616c6c20776974682076616c7565206661696c6564a2646970667358221220312d6023b83c58630da4c1e3993eda6573cac70f8f071ff23c685d0b18f4025f64736f6c63430008010033",
  "linkReferences": {},
  "deployedLinkReferences": {}
}